{
  "contractName": "PrivacyPreservingDelivery",
  "abi": [
    {
      "inputs": [],
      "stateMutability": "nonpayable",
      "type": "constructor"
    },
    {
      "anonymous": false,
      "inputs": [
        {
          "indexed": false,
          "internalType": "string",
          "name": "stepReveal",
          "type": "string"
        }
      ],
      "name": "Reveal",
      "type": "event"
    },
    {
      "inputs": [
        {
          "internalType": "uint256",
          "name": "",
          "type": "uint256"
        }
      ],
      "name": "commits",
      "outputs": [
        {
          "internalType": "string",
          "name": "commitment",
          "type": "string"
        },
        {
          "internalType": "uint64",
          "name": "block",
          "type": "uint64"
        },
        {
          "internalType": "bool",
          "name": "revealed",
          "type": "bool"
        }
      ],
      "stateMutability": "view",
      "type": "function",
      "constant": true
    },
    {
      "inputs": [
        {
          "internalType": "string",
          "name": "dataHash1",
          "type": "string"
        },
        {
          "internalType": "string",
          "name": "dataHash2",
          "type": "string"
        },
        {
          "internalType": "string",
          "name": "dataHash3",
          "type": "string"
        },
        {
          "internalType": "string",
          "name": "dataHash4",
          "type": "string"
        }
      ],
      "name": "commitAddresses",
      "outputs": [],
      "stateMutability": "nonpayable",
      "type": "function"
    },
    {
      "inputs": [
        {
          "internalType": "string",
          "name": "dataHash",
          "type": "string"
        }
      ],
      "name": "commit",
      "outputs": [],
      "stateMutability": "nonpayable",
      "type": "function"
    },
    {
      "inputs": [],
      "name": "reveal",
      "outputs": [],
      "stateMutability": "payable",
      "type": "function",
      "payable": true
    }
  ],
  "bytecode": "0x608060405234801561001057600080fd5b506109c7806100206000396000f3fe60806040526004361061003f5760003560e01c806391c6ebb7146100445780639867db7414610066578063a475b5dd14610086578063c7c4a6151461008e575b600080fd5b34801561005057600080fd5b5061006461005f366004610706565b6100c6565b005b34801561007257600080fd5b506100646100813660046106ca565b610121565b61006461020e565b34801561009a57600080fd5b506100ae6100a93660046107b2565b6104d3565b6040516100bd939291906107cb565b60405180910390f35b600080546001600160a01b031916331790556002805468ffffffffffffffffff191690556100f384610121565b6100fc83610121565b61010582610121565b61010e81610121565b50506002805460ff191660011790555050565b6000546001600160a01b0316331461013857600080fd5b600060025460ff1660058111156101515761015161094f565b1461015b57600080fd5b604080516060810182528281526001600160401b03431660208083019190915260009282018390526001805480820182559352815180519293849360029091027fb10e2d527612073b26eecdfd717e6a320cf44b4afac2b0732d9fcbe2b7fa0cf601926101cc9284929101906105a5565b506020820151600190910180546040909301511515600160401b0268ffffffffffffffffff199093166001600160401b03909216919091179190911790555050565b600160025460ff1660058111156102275761022761094f565b148061024857506002805460ff1660058111156102465761024661094f565b145b806102695750600360025460ff1660058111156102675761026761094f565b145b8061028a5750600460025460ff1660058111156102885761028861094f565b145b61029357600080fd5b60015460025461010090046001600160401b0316106102b157600080fd5b60025460018054909161010090046001600160401b03169081106102d7576102d7610965565b6000918252602090912060029091020160010154600160401b900460ff16156102ff57600080fd5b600180600260019054906101000a90046001600160401b03166001600160401b03168154811061033157610331610965565b60009182526020909120600160029092020181018054921515600160401b0268ff0000000000000000199093169290921790915560025460ff16600581111561037c5761037c61094f565b141561039a5760028054819060ff19166001825b021790555061042c565b6002805460ff1660058111156103b2576103b261094f565b14156103cc57600280546003919060ff1916600183610390565b600360025460ff1660058111156103e5576103e561094f565b14156103ff57600280546004919060ff1916600183610390565b600460025460ff1660058111156104185761041861094f565b141561042c576002805460ff191660051790555b600280547ff040279f20c4475afca9a566d33b14e09c92fcb6460fb4121fadf563ab9ecc1f9160019161010090046001600160401b0316908261046e8361091a565b91906101000a8154816001600160401b0302191690836001600160401b031602179055506001600160401b0316815481106104ab576104ab610965565b90600052602060002090600202016000016040516104c99190610837565b60405180910390a1565b600181815481106104e357600080fd5b9060005260206000209060020201600091509050806000018054610506906108df565b80601f0160208091040260200160405190810160405280929190818152602001828054610532906108df565b801561057f5780601f106105545761010080835404028352916020019161057f565b820191906000526020600020905b81548152906001019060200180831161056257829003601f168201915b505050600190930154919250506001600160401b0381169060ff600160401b9091041683565b8280546105b1906108df565b90600052602060002090601f0160209004810192826105d35760008555610619565b82601f106105ec57805160ff1916838001178555610619565b82800160010185558215610619579182015b828111156106195782518255916020019190600101906105fe565b50610625929150610629565b5090565b5b80821115610625576000815560010161062a565b600082601f83011261064f57600080fd5b81356001600160401b03808211156106695761066961097b565b604051601f8301601f19908116603f011681019082821181831017156106915761069161097b565b816040528381528660208588010111156106aa57600080fd5b836020870160208301376000602085830101528094505050505092915050565b6000602082840312156106dc57600080fd5b81356001600160401b038111156106f257600080fd5b6106fe8482850161063e565b949350505050565b6000806000806080858703121561071c57600080fd5b84356001600160401b038082111561073357600080fd5b61073f8883890161063e565b9550602087013591508082111561075557600080fd5b6107618883890161063e565b9450604087013591508082111561077757600080fd5b6107838883890161063e565b9350606087013591508082111561079957600080fd5b506107a68782880161063e565b91505092959194509250565b6000602082840312156107c457600080fd5b5035919050565b606081526000845180606084015260005b818110156107f957602081880181015160808684010152016107dc565b8181111561080b576000608083860101525b506001600160401b0385166020840152601f01601f1916820160800190506106fe604083018415159052565b600060208083526000845481600182811c91508083168061085957607f831692505b85831081141561087757634e487b7160e01b85526022600452602485fd5b87860183815260200181801561089457600181146108a5576108d0565b60ff198616825287820196506108d0565b60008b81526020902060005b868110156108ca578154848201529085019089016108b1565b83019750505b50949998505050505050505050565b600181811c908216806108f357607f821691505b6020821081141561091457634e487b7160e01b600052602260045260246000fd5b50919050565b60006001600160401b038083168181141561094557634e487b7160e01b600052601160045260246000fd5b6001019392505050565b634e487b7160e01b600052602160045260246000fd5b634e487b7160e01b600052603260045260246000fd5b634e487b7160e01b600052604160045260246000fdfea26469706673582212200546ad17eb1165b21a3ec54b424fb5c9ca6c8ad44822974a191d5918602f0ff364736f6c63430008060033",
  "immutableReferences": {},
  "source": "// SPDX-License-Identifier: GPL-3.0\n\npragma solidity ^0.8.6;\n\ncontract PrivacyPreservingDelivery {\n\n    enum Stages {\n        InitialCommit,\n        FirstReveal,\n        SecondReveal,\n        ThirdReveal,\n        FourthReveal,\n        Delivered\n    }\n    \n    struct CommitChoice {\n        string commitment;\n        uint64 block;\n        bool revealed;\n    }\n    \n    address owner;\n    CommitChoice[] public commits;\n    Stages stage;\n    uint64 commitIndex;\n    constructor() {}\n\n    modifier restricted() {\n        require(msg.sender == owner);\n        _;\n    }\n    \n    function commitAddresses (string memory dataHash1, string memory dataHash2, string memory dataHash3, string memory dataHash4) public {\n        owner = msg.sender;\n        stage = Stages.InitialCommit;\n        commitIndex = 0;\n        \n        commit(dataHash1);\n        commit(dataHash2);\n        commit(dataHash3);\n        commit(dataHash4);\n        \n        stage = Stages.FirstReveal;\n    }\n    \n    function commit(string memory dataHash) public restricted{\n        \n        require(stage == Stages.InitialCommit);\n        \n        CommitChoice memory commitChoice = CommitChoice(dataHash, uint64(block.number), false);\n        commits.push(commitChoice);\n    }\n\n    event Reveal(string stepReveal);\n\n    function reveal() public payable {\n        require(stage == Stages.FirstReveal || stage == Stages.SecondReveal || stage == Stages.ThirdReveal || stage == Stages.FourthReveal);\n        require(commitIndex < commits.length);\n        require(commits[commitIndex].revealed == false);\n        \n        commits[commitIndex].revealed = true;\n        \n        if(stage == Stages.FirstReveal) stage = Stages.SecondReveal;\n        else if(stage == Stages.SecondReveal) stage = Stages.ThirdReveal;\n        else if(stage == Stages.ThirdReveal) stage = Stages.FourthReveal;\n        else if(stage == Stages.FourthReveal) stage = Stages.Delivered;\n        emit Reveal(commits[commitIndex++].commitment);\n    }\n}",
  "sourcePath": "/Users/shahinzanbaghi/Desktop/PPD/contracts/PrivacyPreservingDelivery.sol",
  "compiler": {
    "name": "solc",
    "version": "0.8.6+commit.11564f7e.Emscripten.clang"
  },
  "schemaVersion": "3.4.2",
  "updatedAt": "2021-07-28T22:01:51.230Z",
  "networkType": "ethereum",
  "devdoc": {
    "kind": "dev",
    "methods": {},
    "version": 1
  },
  "userdoc": {
    "kind": "user",
    "methods": {},
    "version": 1
  }
}